:100000000C942F000C945C000C945D000C94650023
:100010000C9460000C9400000C9400000C94000000
:100020000C9400000C945E000C9400000C940000F2
:100030000C9400000C9400000C9400000C94000040
:100040000C9400000C9400000C9400000C945F00D1
:100050000C94000080C00200600154000000F8947D
:10006000EE27ECBBF1E0FBBFEBBFE5BF8DE0A2E00C
:10007000BB27ED938A95E9F780E094E0A0E6ED9345
:100080000197E9F7E6E5F0E085919591009761F039
:10009000A591B59105901590BF01F00105900D92C5
:1000A0000197E1F7FB01F0CFEFE5EDBFE4E0EEBF34
:1000B000C0E6D1E00C94660018951895189518952F
:1000C000EA93E2EBE4BDE99118951895E0E0EABB0C
:1000D000EBBBEFEFE7BBE0E0E8BBEFEFE4BBE0E05A
:1000E000E5BBE0E8E1BBE0E0E2BBE5E6E3BFE0E082
:1000F000E2BFE5EEECBFE0E0EFBDEEBDEDBDECBD77
:10010000E7BDE6BDEBBDEABDE9BDE8BDE2BDE7E3A5
:10011000E5BDE2EBE4BDE0E0E3BDE3ECE9BFEBB756
:10012000E06CEBBFEAE0E5BFE0E0E4BFE0ECEABF93
:10013000E0E0EAB9E0E8E8B9E0E0E0BFE6B9EDB94F
:10014000E6BFA8E00E94F100789402D0FECFFFCF76
:1001500024971A930A9309B31127F801AAE5B0E08E
:100160000E94CD01DF01EFEFF0E00E94E50135963E
:100170000E94C0010E948601EA83FB836C837D8319
:100180000E944D01ECBF1981088126960895AA931B
:10019000E5B3EF70AE2FE881E07FEA2BE5BB8DE0A1
:1001A0008A95F1F7AA9A8DE08A95F1F7AA988DE0E1
:1001B0008A95F1F73FC0AA93A881E9DFE881E2952B
:1001C000E883A881E4DF85E88A95F1F733C0A2E0EF
:1001D00033D0ACE0F0DFA1E02FD0E0E04E2E5E2E79
:1001E0000895AA93E4B3E06FE4BBA29AA09AA19AFF
:1001F000AA98A898A9987880E881E058E0936201CD
:10020000E881E054E0936301A4E1B0E00E9428019A
:1002100018D017D016D0A0E2BADF88EC90E0019792
:10022000F1F7A8E2C8DFA4E0C6DFA5E8C4DFA6E0D6
:10023000C2DFCDDF21960895BEDFA3E0B0E00C94CD
:100240002801A0E3A4DF88EC90E00197F1F708957E
:10025000109639F080ED97E00197F1F7A895119786
:10026000C9F7089550E8572711F45F936BC05F3FBB
:1002700031F0660F000C57956795752F08955F93C1
:1002800000200AF06BC064C050E8072E0522660FFC
:10029000771F7527550F67950895689401C0E894F6
:1002A0005F93F2DF703818F07F3F08F44BC056E1DF
:1002B000571BAAF4519558300EF4593030F0EFEF37
:1002C000FFEF6FEF7FE777F91AC077275523B9F073
:1002D000EE0FFF1F661F771F5A95D1F710C07727C3
:1002E000583028F0EF2FF62F672F5850F9CF5523AD
:1002F00031F076956795F795E7955A95D1F70020F7
:100300000AF436D05F910895689401C0E89430975C
:1003100060407040B1F0002426F0772312F400947E
:1003200027D0172E7EE1112032F07A95EE0FFF1FB5
:10033000661F111CF9CFEF2FF62F612D5F9392DF0F
:100340005F910895EE27FF27662777275F9108952D
:10035000EFEFFFEF6FE77FEF5F910895EFEFFFEFB4
:100360006FE77FE75F910895F195E195F04008957B
:10037000F09560957095E195FF4F6F4F7F4F089511
:100380006F2F660F660B762F0895FA9FF02DEB9F67
:10039000F00DEA9FE02DF10D08951CD0F6DF0EF46C
:1003A000E3DF08950024112490E1AA0FBB1F001C75
:1003B000111C0E1A1F0A18F40E0E1F1E01C0A16098
:1003C0009A9599F7FD01D001089504D0EBDF0EF462
:1003D000CBDF0895E894F7FF02C0C6DF6894B7FF4B
:1003E00006C0A095B095119600F8039400FA089500
:00000001FF
