:040000000C94360026
:100004000C9400000C9400000C9486000C94650081
:100014000C9400000C9400000C9400000C9400005C
:100024000C9463000C9400000C9400000C940000E9
:100034000C9400000C9400000C9400000C9400003C
:100044000C9400000C9400000C9464000C940000C8
:10005400000000008000000080C00800040054007C
:10006400020060015C000000F894EE27ECBBF1E0B4
:10007400FBBFEBBFE5BF8DE0A2E0BB27ED938A9504
:10008400E9F780E094E0A0E6ED930197E9F7EEE567
:10009400F0E085919591009761F0A591B591059057
:1000A4001590BF01F00105900D920197E1F7FB0156
:1000B400F0CFEFE5EDBFE4E0EEBFC0E6D1E00C9495
:1000C4008700189518950A921A92FA926A937A936D
:1000D4008A939A93AA93BA93EA93FA93EFB7EA931B
:1000E400A6E1B0E00E94E1000E94E700E991EFBFC1
:1000F400F991E991B991A99199918991799169912C
:10010400F9901990099018951895E0E0EABBEBBBBB
:10011400EFEFE7BBE0E0E8BBEFEFE4BBE0E0E5BB1B
:10012400E3ECE1BBE0E0E2BBE5E6E3BFE0E0E2BF35
:10013400ECBFE2BDE7E3E5BDE4E6E4BDE0E0E3BD3A
:10014400E3ECE9BFA8E00E944E01789402D0FECF10
:10015400FFCF24970E94300309B31127F801AAE5C1
:10016400B0E00E94F802DF01EFEFF0E00E9410031C
:1001740035960E94EB020E94F601EC83FD836E83A8
:100184007F83A0E0B0E088EC91E40E948002DF016C
:10019400CB01E0E0F0E068EC71E40E9423030E94EC
:1001A4002902A0E0B0E080ED91E40E9430020E94B8
:1001B400BF019F012CBF0E94350328960895BA936E
:1001C400AA93E881E4BD2296089588BAF301319692
:1001D4003F01ECE2F1E0E615F70579F4A0EDB7E0B4
:1001E4000E94860166247724042C052821F4E1E08A
:1001F400F0E02F0102C044245524042C052849F4BE
:10020400EA2DA0E80E94DA028E2E99249098919A01
:100214000EC0E1E0F0E0E415F50549F4EA2DEC5FE9
:10022400A1E0B0E00E94E2024F01909A9198F5019A
:1002340031965F01E4E0F0E0EA15FB0511F4AA242D
:10024400BB240895AA93E5B3EF70AE2FE881E07F55
:10025400EA2BE5BB8DE08A95F1F7AA9A8DE08A95A1
:10026400F1F7AA988DE08A95F1F740C0AA93A88186
:10027400E9DFE881E295E883A881E4DF85E88A95EF
:10028400F1F734C0A2E034D0ACE0F0DFA1E030D02C
:10029400E0E0CE2EDE2E0895AA93E4B3E06FE4BB33
:1002A400A29AA09AA19AAA98A898A998E881E093FA
:1002B4006401E058E0936201E881E054E093630153
:1002C400A4E1B0E00E94860118D017D016D0A0E2B5
:1002D400B9DF88EC90E00197F1F7A8E2C7DFA4E06A
:1002E400C5DFA5E8C3DFA6E0C1DFCCDF2196089512
:1002F400BDDFA3E0B0E00C948601A0E3A3DF88ECAB
:1003040090E00197F1F70895109639F080ED97E0A9
:100314000197F1F7A8951197C9F70895552342F469
:10032400503811F4E0FF04C03196691F791F6BF057
:1003340050E8572711F45F93CFC05F3F31F0660F49
:10034400000C57956795752F08955F9300200AF068
:10035400CFC0C8C050E8192E1522880F991F9527C1
:10036400550F879550E8072E0522660F771F7527CE
:10037400550F67950895689401C0E8945F93F2DF80
:10038400703818F07F3F08F4A7C056E1571BAAF451
:10039400519558300EF4593030F0EFEFFFEF6FEF16
:1003A4007FE777F91AC077275523B9F0EE0FFF1FBF
:1003B400661F771F5A95D1F710C07727583028F059
:1003C400EF2FF62F672F5850F9CF552331F076953C
:1003D4006795F795E7955A95D1F700200AF4E0D090
:1003E4005F910895689401C0E8943097604070402C
:1003F400B1F0002426F0772312F40094D1D0172E04
:100404007EE1112032F07A95EE0FFF1F661F111C5A
:10041400F9CFEF2FF62F612D5F938ADF5F91089557
:100424004F93AF01FD01DA01AB01BC01CA01402DBC
:10043400012C142E4F910895EA0FFB1F681F089595
:10044400E095F0956095EF5FFF4F6F4F08955F93D0
:1004540081DF903871F150E8152604C05F937ADF8C
:10046400903839F1703821F1572F591B2BF112F4C0
:10047400D7DFFACF583118F0AA27BB27882758307E
:1004840028F0AB2FB82F88275850F9CF552329F0DF
:100494008695B795A7955A95D9F7502D512572F0A1
:1004A400CBDF38F46795F795E795739513F420C07F
:1004B400B7DF3EDF5F910895D8F7FBCFEA1BFB0B54
:1004C400680B51F010F40094BBDF662392F3EE0F37
:1004D400FF1F661F7A95CBF7EE27FF27662777273E
:1004E4005F910895EFEFFFEF6FE77FEF5F9108955E
:1004F400EFEFFFEF6FE77FE75F9108955F932ADFE8
:10050400703851F3903841F301240894791F23F48F
:100514001CF300203AF3ECCF0F921F932F933F93D9
:100524004F93112722279927689FA0018F9F302D71
:10053400410D591F6B9F300D411D591F8E9F27D0B0
:10054400BF9F25D06A9F23D0BE9F1DD0AF9F1BD0D5
:10055400AE9F110D291F391F491F591FE32FF42F77
:10056400652F522F4F913F912F911F910F9066232A
:100574002AF0550FEE1FFF1F661F02C073954BF242
:10058400CDDE5F910895100D211D391F02C0200D8D
:10059400311D491F591F0895F195E195F0400895C3
:1005A400F09560957095E195FF4F6F4F7F4F0895DB
:1005B400EE230E2EEA2F19F0E6950A94E9F7089532
:1005C400EE230E2EFD0121F0EE0FFF1F0A94E1F73A
:1005D40008956F2F660F660B762F0895FA9FF02DFE
:1005E400EB9FF00DEA9FE02DF10D08951CD0F6DF8E
:1005F4000EF4D2DF08950024112490E1AA0FBB1F4A
:10060400001C111C0E1A1F0A18F40E0E1F1E01C026
:10061400A1609A9599F7FD01D001089504D0EBDF0C
:100624000EF4BADF0895E894F7FF02C0B5DF6894CA
:10063400B7FF06C0A095B095119600F8039400FA90
:100644000895182E862F612D192E972F712D1B2E8C
:10065400BF2FF12D1A2EAE2FE12D08953A932A9330
:100664001A930A9308953B812A8119810881089578
:00000001FF
